{
  "transactions": [
    {
      "hash": "0x90db64068bdb97bda93f4b3c954df59c57c73ac1c25bd7374ee47fb3b836a30b",
      "transactionType": "CALL",
      "contractName": null,
      "contractAddress": "0xc9ca0707bcd500bd00361e6e615df42f6c08ed6b",
      "function": "mint(address,bytes32,string,bytes)",
      "arguments": [
        "0x2931be85049AB879831506007258E1A104F09bB5",
        "0x52aad4627c3d3d8f2fb1d501ca919ddd4f9f15a3e77d327fbc26af856b3a9471",
        "0g://mgr",
        "0x04aabbccdd"
      ],
      "transaction": {
        "from": "0x2931be85049ab879831506007258e1a104f09bb5",
        "to": "0xc9ca0707bcd500bd00361e6e615df42f6c08ed6b",
        "gas": "0x3a019",
        "value": "0x0",
        "input": "0xd17879de0000000000000000000000002931be85049ab879831506007258e1a104f09bb552aad4627c3d3d8f2fb1d501ca919ddd4f9f15a3e77d327fbc26af856b3a9471000000000000000000000000000000000000000000000000000000000000008000000000000000000000000000000000000000000000000000000000000000c0000000000000000000000000000000000000000000000000000000000000000830673a2f2f6d6772000000000000000000000000000000000000000000000000000000000000000000000000000000000000000000000000000000000000000504aabbccdd000000000000000000000000000000000000000000000000000000",
        "nonce": "0x7",
        "chainId": "0x40da"
      },
      "additionalContracts": [],
      "isFixedGasLimit": false
    },
    {
      "hash": "0x5b0586a8dcca6b92c1184dd78fa19c5ad511aed6fac5c61792238ae086b4eaeb",
      "transactionType": "CALL",
      "contractName": null,
      "contractAddress": "0xc9ca0707bcd500bd00361e6e615df42f6c08ed6b",
      "function": "mint(address,bytes32,string,bytes)",
      "arguments": [
        "0x2931be85049AB879831506007258E1A104F09bB5",
        "0xe49b17e5aa0813c5b6536f22642727343baf8fc226622c5db07e16fa94d0af3f",
        "0g://mom",
        "0x04aabbccdd"
      ],
      "transaction": {
        "from": "0x2931be85049ab879831506007258e1a104f09bb5",
        "to": "0xc9ca0707bcd500bd00361e6e615df42f6c08ed6b",
        "gas": "0x3a019",
        "value": "0x0",
        "input": "0xd17879de0000000000000000000000002931be85049ab879831506007258e1a104f09bb5e49b17e5aa0813c5b6536f22642727343baf8fc226622c5db07e16fa94d0af3f000000000000000000000000000000000000000000000000000000000000008000000000000000000000000000000000000000000000000000000000000000c0000000000000000000000000000000000000000000000000000000000000000830673a2f2f6d6f6d000000000000000000000000000000000000000000000000000000000000000000000000000000000000000000000000000000000000000504aabbccdd000000000000000000000000000000000000000000000000000000",
        "nonce": "0x8",
        "chainId": "0x40da"
      },
      "additionalContracts": [],
      "isFixedGasLimit": false
    },
    {
      "hash": "0xa452d1f1ac9cdd1656b9c1ed0c01b9b607e20b7342d0dd6374cabeaeec3ff860",
      "transactionType": "CALL",
      "contractName": null,
      "contractAddress": "0xc9ca0707bcd500bd00361e6e615df42f6c08ed6b",
      "function": "mint(address,bytes32,string,bytes)",
      "arguments": [
        "0x2931be85049AB879831506007258E1A104F09bB5",
        "0x8740942855655f82a31373e8871afcd903d5ccdbc7eefb98c8556af0190f7541",
        "0g://mr",
        "0x04aabbccdd"
      ],
      "transaction": {
        "from": "0x2931be85049ab879831506007258e1a104f09bb5",
        "to": "0xc9ca0707bcd500bd00361e6e615df42f6c08ed6b",
        "gas": "0x36c78",
        "value": "0x0",
        "input": "0xd17879de0000000000000000000000002931be85049ab879831506007258e1a104f09bb58740942855655f82a31373e8871afcd903d5ccdbc7eefb98c8556af0190f7541000000000000000000000000000000000000000000000000000000000000008000000000000000000000000000000000000000000000000000000000000000c0000000000000000000000000000000000000000000000000000000000000000730673a2f2f6d7200000000000000000000000000000000000000000000000000000000000000000000000000000000000000000000000000000000000000000504aabbccdd000000000000000000000000000000000000000000000000000000",
        "nonce": "0x9",
        "chainId": "0x40da"
      },
      "additionalContracts": [],
      "isFixedGasLimit": false
    },
    {
      "hash": "0x592d14d539a533a8f8f2d84a7d7825e3afe27e255cae17f8c355eca5c5304156",
      "transactionType": "CALL",
      "contractName": null,
      "contractAddress": "0xc9ca0707bcd500bd00361e6e615df42f6c08ed6b",
      "function": "mint(address,bytes32,string,bytes)",
      "arguments": [
        "0x2931be85049AB879831506007258E1A104F09bB5",
        "0xd6e23a0632da5a51a26725b47a0190d5489a2c75d016dc4af9d7afa45361cd93",
        "0g://mm",
        "0x04aabbccdd"
      ],
      "transaction": {
        "from": "0x2931be85049ab879831506007258e1a104f09bb5",
        "to": "0xc9ca0707bcd500bd00361e6e615df42f6c08ed6b",
        "gas": "0x36c78",
        "value": "0x0",
        "input": "0xd17879de0000000000000000000000002931be85049ab879831506007258e1a104f09bb5d6e23a0632da5a51a26725b47a0190d5489a2c75d016dc4af9d7afa45361cd93000000000000000000000000000000000000000000000000000000000000008000000000000000000000000000000000000000000000000000000000000000c0000000000000000000000000000000000000000000000000000000000000000730673a2f2f6d6d00000000000000000000000000000000000000000000000000000000000000000000000000000000000000000000000000000000000000000504aabbccdd000000000000000000000000000000000000000000000000000000",
        "nonce": "0xa",
        "chainId": "0x40da"
      },
      "additionalContracts": [],
      "isFixedGasLimit": false
    },
    {
      "hash": "0xf14e0c934449bfce07d26a7a4da47fd2d35e41f13fc0a046ade98688415dfb71",
      "transactionType": "CALL",
      "contractName": null,
      "contractAddress": "0xd5bf7bb2c0f18d357535b4b44a0e5190731ecbba",
      "function": "setOperator(uint256,address)",
      "arguments": [
        "2",
        "0x2931be85049AB879831506007258E1A104F09bB5"
      ],
      "transaction": {
        "from": "0x2931be85049ab879831506007258e1a104f09bb5",
        "to": "0xd5bf7bb2c0f18d357535b4b44a0e5190731ecbba",
        "gas": "0x124eb",
        "value": "0x0",
        "input": "0xe7a1c1c000000000000000000000000000000000000000000000000000000000000000020000000000000000000000002931be85049ab879831506007258e1a104f09bb5",
        "nonce": "0xb",
        "chainId": "0x40da"
      },
      "additionalContracts": [],
      "isFixedGasLimit": false
    },
    {
      "hash": "0xf7ca2165274addebb32e831102beb151c1b7103cd82b086e9c885c2e5bc41ea5",
      "transactionType": "CALL",
      "contractName": null,
      "contractAddress": "0xd5bf7bb2c0f18d357535b4b44a0e5190731ecbba",
      "function": "setPolicy(uint256,(address[],uint256,uint256,uint256))",
      "arguments": [
        "2",
        "([], 1000000000000000000, 10000000000000000000, 0)"
      ],
      "transaction": {
        "from": "0x2931be85049ab879831506007258e1a104f09bb5",
        "to": "0xd5bf7bb2c0f18d357535b4b44a0e5190731ecbba",
        "gas": "0x1a6f3",
        "value": "0x0",
        "input": "0xc03af8070000000000000000000000000000000000000000000000000000000000000002000000000000000000000000000000000000000000000000000000000000004000000000000000000000000000000000000000000000000000000000000000800000000000000000000000000000000000000000000000000de0b6b3a76400000000000000000000000000000000000000000000000000008ac7230489e8000000000000000000000000000000000000000000000000000000000000000000000000000000000000000000000000000000000000000000000000000000000000",
        "nonce": "0xc",
        "chainId": "0x40da"
      },
      "additionalContracts": [],
      "isFixedGasLimit": false
    },
    {
      "hash": "0xd2f7ccd60a6ec1a296a66d5b7e7c59329066f2ab622ab6f11a474f6d2e24a20b",
      "transactionType": "CALL",
      "contractName": null,
      "contractAddress": "0xd5bf7bb2c0f18d357535b4b44a0e5190731ecbba",
      "function": "setOperator(uint256,address)",
      "arguments": [
        "3",
        "0x2931be85049AB879831506007258E1A104F09bB5"
      ],
      "transaction": {
        "from": "0x2931be85049ab879831506007258e1a104f09bb5",
        "to": "0xd5bf7bb2c0f18d357535b4b44a0e5190731ecbba",
        "gas": "0x124eb",
        "value": "0x0",
        "input": "0xe7a1c1c000000000000000000000000000000000000000000000000000000000000000030000000000000000000000002931be85049ab879831506007258e1a104f09bb5",
        "nonce": "0xd",
        "chainId": "0x40da"
      },
      "additionalContracts": [],
      "isFixedGasLimit": false
    },
    {
      "hash": "0x75f8d6c323cccc9a7d5e17db17ea459e5840c3e5fe1c3668dbffc7b5a005a51e",
      "transactionType": "CALL",
      "contractName": null,
      "contractAddress": "0xd5bf7bb2c0f18d357535b4b44a0e5190731ecbba",
      "function": "setPolicy(uint256,(address[],uint256,uint256,uint256))",
      "arguments": [
        "3",
        "([], 1000000000000000000, 10000000000000000000, 0)"
      ],
      "transaction": {
        "from": "0x2931be85049ab879831506007258e1a104f09bb5",
        "to": "0xd5bf7bb2c0f18d357535b4b44a0e5190731ecbba",
        "gas": "0x1a6f3",
        "value": "0x0",
        "input": "0xc03af8070000000000000000000000000000000000000000000000000000000000000003000000000000000000000000000000000000000000000000000000000000004000000000000000000000000000000000000000000000000000000000000000800000000000000000000000000000000000000000000000000de0b6b3a76400000000000000000000000000000000000000000000000000008ac7230489e8000000000000000000000000000000000000000000000000000000000000000000000000000000000000000000000000000000000000000000000000000000000000",
        "nonce": "0xe",
        "chainId": "0x40da"
      },
      "additionalContracts": [],
      "isFixedGasLimit": false
    },
    {
      "hash": "0xc4236582eb421192499985ab5124983d4f8a993974931caa836377ee17c2081c",
      "transactionType": "CALL",
      "contractName": null,
      "contractAddress": "0xd5bf7bb2c0f18d357535b4b44a0e5190731ecbba",
      "function": "setOperator(uint256,address)",
      "arguments": [
        "4",
        "0x2931be85049AB879831506007258E1A104F09bB5"
      ],
      "transaction": {
        "from": "0x2931be85049ab879831506007258e1a104f09bb5",
        "to": "0xd5bf7bb2c0f18d357535b4b44a0e5190731ecbba",
        "gas": "0x124eb",
        "value": "0x0",
        "input": "0xe7a1c1c000000000000000000000000000000000000000000000000000000000000000040000000000000000000000002931be85049ab879831506007258e1a104f09bb5",
        "nonce": "0xf",
        "chainId": "0x40da"
      },
      "additionalContracts": [],
      "isFixedGasLimit": false
    },
    {
      "hash": "0xd64381657838304dffc9bce8214e3b0eb1e1891ab4a34cd0e26ab91394220c5a",
      "transactionType": "CALL",
      "contractName": null,
      "contractAddress": "0xd5bf7bb2c0f18d357535b4b44a0e5190731ecbba",
      "function": "setPolicy(uint256,(address[],uint256,uint256,uint256))",
      "arguments": [
        "4",
        "([], 1000000000000000000, 10000000000000000000, 0)"
      ],
      "transaction": {
        "from": "0x2931be85049ab879831506007258e1a104f09bb5",
        "to": "0xd5bf7bb2c0f18d357535b4b44a0e5190731ecbba",
        "gas": "0x1a6f3",
        "value": "0x0",
        "input": "0xc03af8070000000000000000000000000000000000000000000000000000000000000004000000000000000000000000000000000000000000000000000000000000004000000000000000000000000000000000000000000000000000000000000000800000000000000000000000000000000000000000000000000de0b6b3a76400000000000000000000000000000000000000000000000000008ac7230489e8000000000000000000000000000000000000000000000000000000000000000000000000000000000000000000000000000000000000000000000000000000000000",
        "nonce": "0x10",
        "chainId": "0x40da"
      },
      "additionalContracts": [],
      "isFixedGasLimit": false
    },
    {
      "hash": "0x26e92a3ab2dbf6d3d015651df3df7897bb63391a440572ba96b39615e54ac15f",
      "transactionType": "CALL",
      "contractName": null,
      "contractAddress": "0xd5bf7bb2c0f18d357535b4b44a0e5190731ecbba",
      "function": "setOperator(uint256,address)",
      "arguments": [
        "5",
        "0x2931be85049AB879831506007258E1A104F09bB5"
      ],
      "transaction": {
        "from": "0x2931be85049ab879831506007258e1a104f09bb5",
        "to": "0xd5bf7bb2c0f18d357535b4b44a0e5190731ecbba",
        "gas": "0x124eb",
        "value": "0x0",
        "input": "0xe7a1c1c000000000000000000000000000000000000000000000000000000000000000050000000000000000000000002931be85049ab879831506007258e1a104f09bb5",
        "nonce": "0x11",
        "chainId": "0x40da"
      },
      "additionalContracts": [],
      "isFixedGasLimit": false
    },
    {
      "hash": "0xb03b8167a7c6e8f3a63c887a9340d6ddc07c4b4a0876ea1ea7d80eea282e1d4f",
      "transactionType": "CALL",
      "contractName": null,
      "contractAddress": "0xd5bf7bb2c0f18d357535b4b44a0e5190731ecbba",
      "function": "setPolicy(uint256,(address[],uint256,uint256,uint256))",
      "arguments": [
        "5",
        "([], 1000000000000000000, 10000000000000000000, 0)"
      ],
      "transaction": {
        "from": "0x2931be85049ab879831506007258e1a104f09bb5",
        "to": "0xd5bf7bb2c0f18d357535b4b44a0e5190731ecbba",
        "gas": "0x1a6f3",
        "value": "0x0",
        "input": "0xc03af8070000000000000000000000000000000000000000000000000000000000000005000000000000000000000000000000000000000000000000000000000000004000000000000000000000000000000000000000000000000000000000000000800000000000000000000000000000000000000000000000000de0b6b3a76400000000000000000000000000000000000000000000000000008ac7230489e8000000000000000000000000000000000000000000000000000000000000000000000000000000000000000000000000000000000000000000000000000000000000",
        "nonce": "0x12",
        "chainId": "0x40da"
      },
      "additionalContracts": [],
      "isFixedGasLimit": false
    },
    {
      "hash": "0xece063db068ccd0b55ac14a46986020062144009f19e76287863d74a93fd4acf",
      "transactionType": "CALL",
      "contractName": null,
      "contractAddress": "0xc8a286097394631c49d0ed9a414a9d8c89b21f75",
      "function": "createAccount(address,bytes32,uint256,address,uint256)",
      "arguments": [
        "0x44e8987708370BaC3Fc146063Ddd3144F82CdCc8",
        "0x0000000000000000000000000000000000000000000000000000000000000000",
        "16602",
        "0xc9CA0707BcD500Bd00361e6e615DF42F6C08eD6b",
        "2"
      ],
      "transaction": {
        "from": "0x2931be85049ab879831506007258e1a104f09bb5",
        "to": "0xc8a286097394631c49d0ed9a414a9d8c89b21f75",
        "gas": "0x20683",
        "value": "0x0",
        "input": "0x8a54c52f00000000000000000000000044e8987708370bac3fc146063ddd3144f82cdcc8000000000000000000000000000000000000000000000000000000000000000000000000000000000000000000000000000000000000000000000000000040da000000000000000000000000c9ca0707bcd500bd00361e6e615df42f6c08ed6b0000000000000000000000000000000000000000000000000000000000000002",
        "nonce": "0x13",
        "chainId": "0x40da"
      },
      "additionalContracts": [
        {
          "transactionType": "CREATE2",
          "address": "0x3cf56b1eecddec8c1a1af65d097ba96b8ae03ebf",
          "initCode": "0x3d60ad80600a3d3981f3363d3d373d3d3d363d7344e8987708370bac3fc146063ddd3144f82cdcc85af43d82803e903d91602b57fd5bf3000000000000000000000000000000000000000000000000000000000000000000000000000000000000000000000000000000000000000000000000000040da000000000000000000000000c9ca0707bcd500bd00361e6e615df42f6c08ed6b0000000000000000000000000000000000000000000000000000000000000002"
        }
      ],
      "isFixedGasLimit": false
    },
    {
      "hash": "0x2c2669bc234e74bc1809d70a3dc584d6ebed491df57ba531f3e2484358c5e8c6",
      "transactionType": "CALL",
      "contractName": null,
      "contractAddress": "0xc8a286097394631c49d0ed9a414a9d8c89b21f75",
      "function": "createAccount(address,bytes32,uint256,address,uint256)",
      "arguments": [
        "0x44e8987708370BaC3Fc146063Ddd3144F82CdCc8",
        "0x0000000000000000000000000000000000000000000000000000000000000000",
        "16602",
        "0xc9CA0707BcD500Bd00361e6e615DF42F6C08eD6b",
        "3"
      ],
      "transaction": {
        "from": "0x2931be85049ab879831506007258e1a104f09bb5",
        "to": "0xc8a286097394631c49d0ed9a414a9d8c89b21f75",
        "gas": "0x20683",
        "value": "0x0",
        "input": "0x8a54c52f00000000000000000000000044e8987708370bac3fc146063ddd3144f82cdcc8000000000000000000000000000000000000000000000000000000000000000000000000000000000000000000000000000000000000000000000000000040da000000000000000000000000c9ca0707bcd500bd00361e6e615df42f6c08ed6b0000000000000000000000000000000000000000000000000000000000000003",
        "nonce": "0x14",
        "chainId": "0x40da"
      },
      "additionalContracts": [
        {
          "transactionType": "CREATE2",
          "address": "0xf47d7c9d3ab16c3ee1e110e012b968523743fea4",
          "initCode": "0x3d60ad80600a3d3981f3363d3d373d3d3d363d7344e8987708370bac3fc146063ddd3144f82cdcc85af43d82803e903d91602b57fd5bf3000000000000000000000000000000000000000000000000000000000000000000000000000000000000000000000000000000000000000000000000000040da000000000000000000000000c9ca0707bcd500bd00361e6e615df42f6c08ed6b0000000000000000000000000000000000000000000000000000000000000003"
        }
      ],
      "isFixedGasLimit": false
    },
    {
      "hash": "0x100aa7044ea18982003c1d9a0f8d1341ba52af1b2fb59635f61fd525c9c6a5cd",
      "transactionType": "CALL",
      "contractName": null,
      "contractAddress": "0xc8a286097394631c49d0ed9a414a9d8c89b21f75",
      "function": "createAccount(address,bytes32,uint256,address,uint256)",
      "arguments": [
        "0x44e8987708370BaC3Fc146063Ddd3144F82CdCc8",
        "0x0000000000000000000000000000000000000000000000000000000000000000",
        "16602",
        "0xc9CA0707BcD500Bd00361e6e615DF42F6C08eD6b",
        "4"
      ],
      "transaction": {
        "from": "0x2931be85049ab879831506007258e1a104f09bb5",
        "to": "0xc8a286097394631c49d0ed9a414a9d8c89b21f75",
        "gas": "0x20683",
        "value": "0x0",
        "input": "0x8a54c52f00000000000000000000000044e8987708370bac3fc146063ddd3144f82cdcc8000000000000000000000000000000000000000000000000000000000000000000000000000000000000000000000000000000000000000000000000000040da000000000000000000000000c9ca0707bcd500bd00361e6e615df42f6c08ed6b0000000000000000000000000000000000000000000000000000000000000004",
        "nonce": "0x15",
        "chainId": "0x40da"
      },
      "additionalContracts": [
        {
          "transactionType": "CREATE2",
          "address": "0x4098e662c2d674064ff6605cfccafd89ebbae2a9",
          "initCode": "0x3d60ad80600a3d3981f3363d3d373d3d3d363d7344e8987708370bac3fc146063ddd3144f82cdcc85af43d82803e903d91602b57fd5bf3000000000000000000000000000000000000000000000000000000000000000000000000000000000000000000000000000000000000000000000000000040da000000000000000000000000c9ca0707bcd500bd00361e6e615df42f6c08ed6b0000000000000000000000000000000000000000000000000000000000000004"
        }
      ],
      "isFixedGasLimit": false
    },
    {
      "hash": "0xf41e19f0dfb289f35c13968d18f62fddacdc996cd69cf6d8ff52841192126c51",
      "transactionType": "CALL",
      "contractName": null,
      "contractAddress": "0xc8a286097394631c49d0ed9a414a9d8c89b21f75",
      "function": "createAccount(address,bytes32,uint256,address,uint256)",
      "arguments": [
        "0x44e8987708370BaC3Fc146063Ddd3144F82CdCc8",
        "0x0000000000000000000000000000000000000000000000000000000000000000",
        "16602",
        "0xc9CA0707BcD500Bd00361e6e615DF42F6C08eD6b",
        "5"
      ],
      "transaction": {
        "from": "0x2931be85049ab879831506007258e1a104f09bb5",
        "to": "0xc8a286097394631c49d0ed9a414a9d8c89b21f75",
        "gas": "0x20683",
        "value": "0x0",
        "input": "0x8a54c52f00000000000000000000000044e8987708370bac3fc146063ddd3144f82cdcc8000000000000000000000000000000000000000000000000000000000000000000000000000000000000000000000000000000000000000000000000000040da000000000000000000000000c9ca0707bcd500bd00361e6e615df42f6c08ed6b0000000000000000000000000000000000000000000000000000000000000005",
        "nonce": "0x16",
        "chainId": "0x40da"
      },
      "additionalContracts": [
        {
          "transactionType": "CREATE2",
          "address": "0x5498071acc7cd4c7948808aeac3674f8dac8f764",
          "initCode": "0x3d60ad80600a3d3981f3363d3d373d3d3d363d7344e8987708370bac3fc146063ddd3144f82cdcc85af43d82803e903d91602b57fd5bf3000000000000000000000000000000000000000000000000000000000000000000000000000000000000000000000000000000000000000000000000000040da000000000000000000000000c9ca0707bcd500bd00361e6e615df42f6c08ed6b0000000000000000000000000000000000000000000000000000000000000005"
        }
      ],
      "isFixedGasLimit": false
    },
    {
      "hash": "0xad5ad7f2e8b2f26322950c91b87fb3fadc632d961422fe601d177bb505ee82e3",
      "transactionType": "CALL",
      "contractName": null,
      "contractAddress": "0xc9ca0707bcd500bd00361e6e615df42f6c08ed6b",
      "function": "setApprovalForAll(address,bool)",
      "arguments": [
        "0xD5Bf7BB2c0F18d357535b4B44A0E5190731ecbba",
        "true"
      ],
      "transaction": {
        "from": "0x2931be85049ab879831506007258e1a104f09bb5",
        "to": "0xc9ca0707bcd500bd00361e6e615df42f6c08ed6b",
        "gas": "0xf9ba",
        "value": "0x0",
        "input": "0xa22cb465000000000000000000000000d5bf7bb2c0f18d357535b4b44a0e5190731ecbba0000000000000000000000000000000000000000000000000000000000000001",
        "nonce": "0x17",
        "chainId": "0x40da"
      },
      "additionalContracts": [],
      "isFixedGasLimit": false
    }
  ],
  "receipts": [
    {
      "status": "0x1",
      "cumulativeGasUsed": "0x2e67a",
      "logs": [
        {
          "address": "0xc9ca0707bcd500bd00361e6e615df42f6c08ed6b",
          "topics": [
            "0xddf252ad1be2c89b69c2b068fc378daa952ba7f163c4a11628f55a4df523b3ef",
            "0x0000000000000000000000000000000000000000000000000000000000000000",
            "0x0000000000000000000000002931be85049ab879831506007258e1a104f09bb5",
            "0x0000000000000000000000000000000000000000000000000000000000000002"
          ],
          "data": "0x",
          "blockHash": "0x21cfea5d7e505e275365ac2280fb7bc61bda9c3bdfc0998c04f833008c9b07de",
          "blockNumber": "0x1fc4ce4",
          "blockTimestamp": "0x0",
          "transactionHash": "0x90db64068bdb97bda93f4b3c954df59c57c73ac1c25bd7374ee47fb3b836a30b",
          "transactionIndex": "0x0",
          "logIndex": "0x0",
          "removed": false
        },
        {
          "address": "0x277d737bb2706e01bead9ea305162c16249973e5",
          "topics": [
            "0x3bbba87e8b0a07d589801e13dd322881105b6fbd2243e5568a3c6a23ec52672f",
            "0x0000000000000000000000000000000000000000000000000000000000000002",
            "0x000000000000000000000000c9ca0707bcd500bd00361e6e615df42f6c08ed6b"
          ],
          "data": "0x0000000000000000000000000000000000000000000000000000000000000020000000000000000000000000000000000000000000000000000000000000000504aabbccdd000000000000000000000000000000000000000000000000000000",
          "blockHash": "0x21cfea5d7e505e275365ac2280fb7bc61bda9c3bdfc0998c04f833008c9b07de",
          "blockNumber": "0x1fc4ce4",
          "blockTimestamp": "0x0",
          "transactionHash": "0x90db64068bdb97bda93f4b3c954df59c57c73ac1c25bd7374ee47fb3b836a30b",
          "transactionIndex": "0x0",
          "logIndex": "0x1",
          "removed": false
        },
        {
          "address": "0x277d737bb2706e01bead9ea305162c16249973e5",
          "topics": [
            "0x3bbba87e8b0a07d589801e13dd322881105b6fbd2243e5568a3c6a23ec52672f",
            "0x0000000000000000000000000000000000000000000000000000000000000002",
            "0x0000000000000000000000002931be85049ab879831506007258e1a104f09bb5"
          ],
          "data": "0x0000000000000000000000000000000000000000000000000000000000000020000000000000000000000000000000000000000000000000000000000000000504aabbccdd000000000000000000000000000000000000000000000000000000",
          "blockHash": "0x21cfea5d7e505e275365ac2280fb7bc61bda9c3bdfc0998c04f833008c9b07de",
          "blockNumber": "0x1fc4ce4",
          "blockTimestamp": "0x0",
          "transactionHash": "0x90db64068bdb97bda93f4b3c954df59c57c73ac1c25bd7374ee47fb3b836a30b",
          "transactionIndex": "0x0",
          "logIndex": "0x2",
          "removed": false
        },
        {
          "address": "0xc9ca0707bcd500bd00361e6e615df42f6c08ed6b",
          "topics": [
            "0x759bf8148c6bfac009459ec7604befc0ff80fc7c114157b800524502b902f622",
            "0x0000000000000000000000000000000000000000000000000000000000000002"
          ],
          "data": "0x000000000000000000000000000000000000000000000000000000000000000052aad4627c3d3d8f2fb1d501ca919ddd4f9f15a3e77d327fbc26af856b3a94710000000000000000000000000000000000000000000000000000000000000060000000000000000000000000000000000000000000000000000000000000000830673a2f2f6d6772000000000000000000000000000000000000000000000000",
          "blockHash": "0x21cfea5d7e505e275365ac2280fb7bc61bda9c3bdfc0998c04f833008c9b07de",
          "blockNumber": "0x1fc4ce4",
          "blockTimestamp": "0x0",
          "transactionHash": "0x90db64068bdb97bda93f4b3c954df59c57c73ac1c25bd7374ee47fb3b836a30b",
          "transactionIndex": "0x0",
          "logIndex": "0x3",
          "removed": false
        }
      ],
      "logsBloom": "0x0c000000000000000000000000000000000000000000000000000000000002001000000001000000000008000000000000024000000000000000040000001000000000000000000000001008000000000000000000000000000000000000000000000000020000000100000000000800000000000000000000000090000000004000000000000000000000000000000000000000000000000000000000000000000000000000000000000100000000000000000000000000000000000400000000000002000000000000000000000000000000000000200000000000000020000000000000000000000000000001400000000000008080000000000000000000",
      "type": "0x0",
      "transactionHash": "0x90db64068bdb97bda93f4b3c954df59c57c73ac1c25bd7374ee47fb3b836a30b",
      "transactionIndex": "0x0",
      "blockHash": "0x21cfea5d7e505e275365ac2280fb7bc61bda9c3bdfc0998c04f833008c9b07de",
      "blockNumber": "0x1fc4ce4",
      "gasUsed": "0x2e67a",
      "effectiveGasPrice": "0x12a05f200",
      "from": "0x2931be85049ab879831506007258e1a104f09bb5",
      "to": "0xc9ca0707bcd500bd00361e6e615df42f6c08ed6b",
      "contractAddress": null
    },
    {
      "status": "0x1",
      "cumulativeGasUsed": "0x2e67a",
      "logs": [
        {
          "address": "0xc9ca0707bcd500bd00361e6e615df42f6c08ed6b",
          "topics": [
            "0xddf252ad1be2c89b69c2b068fc378daa952ba7f163c4a11628f55a4df523b3ef",
            "0x0000000000000000000000000000000000000000000000000000000000000000",
            "0x0000000000000000000000002931be85049ab879831506007258e1a104f09bb5",
            "0x0000000000000000000000000000000000000000000000000000000000000003"
          ],
          "data": "0x",
          "blockHash": "0x3d4d512bdbbb6b4d8fd54d91b1d6347d8b5fd1c2c5d443017a6058e3cbf82b79",
          "blockNumber": "0x1fc4cf4",
          "blockTimestamp": "0x0",
          "transactionHash": "0x5b0586a8dcca6b92c1184dd78fa19c5ad511aed6fac5c61792238ae086b4eaeb",
          "transactionIndex": "0x0",
          "logIndex": "0x0",
          "removed": false
        },
        {
          "address": "0x277d737bb2706e01bead9ea305162c16249973e5",
          "topics": [
            "0x3bbba87e8b0a07d589801e13dd322881105b6fbd2243e5568a3c6a23ec52672f",
            "0x0000000000000000000000000000000000000000000000000000000000000003",
            "0x000000000000000000000000c9ca0707bcd500bd00361e6e615df42f6c08ed6b"
          ],
          "data": "0x0000000000000000000000000000000000000000000000000000000000000020000000000000000000000000000000000000000000000000000000000000000504aabbccdd000000000000000000000000000000000000000000000000000000",
          "blockHash": "0x3d4d512bdbbb6b4d8fd54d91b1d6347d8b5fd1c2c5d443017a6058e3cbf82b79",
          "blockNumber": "0x1fc4cf4",
          "blockTimestamp": "0x0",
          "transactionHash": "0x5b0586a8dcca6b92c1184dd78fa19c5ad511aed6fac5c61792238ae086b4eaeb",
          "transactionIndex": "0x0",
          "logIndex": "0x1",
          "removed": false
        },
        {
          "address": "0x277d737bb2706e01bead9ea305162c16249973e5",
          "topics": [
            "0x3bbba87e8b0a07d589801e13dd322881105b6fbd2243e5568a3c6a23ec52672f",
            "0x0000000000000000000000000000000000000000000000000000000000000003",
            "0x0000000000000000000000002931be85049ab879831506007258e1a104f09bb5"
          ],
          "data": "0x0000000000000000000000000000000000000000000000000000000000000020000000000000000000000000000000000000000000000000000000000000000504aabbccdd000000000000000000000000000000000000000000000000000000",
          "blockHash": "0x3d4d512bdbbb6b4d8fd54d91b1d6347d8b5fd1c2c5d443017a6058e3cbf82b79",
          "blockNumber": "0x1fc4cf4",
          "blockTimestamp": "0x0",
          "transactionHash": "0x5b0586a8dcca6b92c1184dd78fa19c5ad511aed6fac5c61792238ae086b4eaeb",
          "transactionIndex": "0x0",
          "logIndex": "0x2",
          "removed": false
        },
        {
          "address": "0xc9ca0707bcd500bd00361e6e615df42f6c08ed6b",
          "topics": [
            "0x759bf8148c6bfac009459ec7604befc0ff80fc7c114157b800524502b902f622",
            "0x0000000000000000000000000000000000000000000000000000000000000003"
          ],
          "data": "0x0000000000000000000000000000000000000000000000000000000000000000e49b17e5aa0813c5b6536f22642727343baf8fc226622c5db07e16fa94d0af3f0000000000000000000000000000000000000000000000000000000000000060000000000000000000000000000000000000000000000000000000000000000830673a2f2f6d6f6d000000000000000000000000000000000000000000000000",
          "blockHash": "0x3d4d512bdbbb6b4d8fd54d91b1d6347d8b5fd1c2c5d443017a6058e3cbf82b79",
          "blockNumber": "0x1fc4cf4",
          "blockTimestamp": "0x0",
          "transactionHash": "0x5b0586a8dcca6b92c1184dd78fa19c5ad511aed6fac5c61792238ae086b4eaeb",
          "transactionIndex": "0x0",
          "logIndex": "0x3",
          "removed": false
        }
      ],
      "logsBloom": "0x08000000000000000000000000000000000000000000000000000000000002001000000001000000000008000000000000024000020000000000040000001000000000000000000000001008000000000000000000000000000000000000000000000000020000000100000000000800000000000000000000000090000000004000000000000000000000000000000000000000000000000000000000000000000000000000000000000000000000000000000000800000000000000400400000000002000000000000000000000000000000000000200000000000000020000000000000000000000000000001400000000000000080000000000000000000",
      "type": "0x0",
      "transactionHash": "0x5b0586a8dcca6b92c1184dd78fa19c5ad511aed6fac5c61792238ae086b4eaeb",
      "transactionIndex": "0x0",
      "blockHash": "0x3d4d512bdbbb6b4d8fd54d91b1d6347d8b5fd1c2c5d443017a6058e3cbf82b79",
      "blockNumber": "0x1fc4cf4",
      "gasUsed": "0x2e67a",
      "effectiveGasPrice": "0x12a05f200",
      "from": "0x2931be85049ab879831506007258e1a104f09bb5",
      "to": "0xc9ca0707bcd500bd00361e6e615df42f6c08ed6b",
      "contractAddress": null
    },
    {
      "status": "0x1",
      "cumulativeGasUsed": "0x2bd2c",
      "logs": [
        {
          "address": "0xc9ca0707bcd500bd00361e6e615df42f6c08ed6b",
          "topics": [
            "0xddf252ad1be2c89b69c2b068fc378daa952ba7f163c4a11628f55a4df523b3ef",
            "0x0000000000000000000000000000000000000000000000000000000000000000",
            "0x0000000000000000000000002931be85049ab879831506007258e1a104f09bb5",
            "0x0000000000000000000000000000000000000000000000000000000000000004"
          ],
          "data": "0x",
          "blockHash": "0xbde647a6624b9fea7a0d941674738e932077beec0cd6a8e87d83229441dc81c3",
          "blockNumber": "0x1fc4d02",
          "blockTimestamp": "0x0",
          "transactionHash": "0xa452d1f1ac9cdd1656b9c1ed0c01b9b607e20b7342d0dd6374cabeaeec3ff860",
          "transactionIndex": "0x0",
          "logIndex": "0x0",
          "removed": false
        },
        {
          "address": "0x277d737bb2706e01bead9ea305162c16249973e5",
          "topics": [
            "0x3bbba87e8b0a07d589801e13dd322881105b6fbd2243e5568a3c6a23ec52672f",
            "0x0000000000000000000000000000000000000000000000000000000000000004",
            "0x000000000000000000000000c9ca0707bcd500bd00361e6e615df42f6c08ed6b"
          ],
          "data": "0x0000000000000000000000000000000000000000000000000000000000000020000000000000000000000000000000000000000000000000000000000000000504aabbccdd000000000000000000000000000000000000000000000000000000",
          "blockHash": "0xbde647a6624b9fea7a0d941674738e932077beec0cd6a8e87d83229441dc81c3",
          "blockNumber": "0x1fc4d02",
          "blockTimestamp": "0x0",
          "transactionHash": "0xa452d1f1ac9cdd1656b9c1ed0c01b9b607e20b7342d0dd6374cabeaeec3ff860",
          "transactionIndex": "0x0",
          "logIndex": "0x1",
          "removed": false
        },
        {
          "address": "0x277d737bb2706e01bead9ea305162c16249973e5",
          "topics": [
            "0x3bbba87e8b0a07d589801e13dd322881105b6fbd2243e5568a3c6a23ec52672f",
            "0x0000000000000000000000000000000000000000000000000000000000000004",
            "0x0000000000000000000000002931be85049ab879831506007258e1a104f09bb5"
          ],
          "data": "0x0000000000000000000000000000000000000000000000000000000000000020000000000000000000000000000000000000000000000000000000000000000504aabbccdd000000000000000000000000000000000000000000000000000000",
          "blockHash": "0xbde647a6624b9fea7a0d941674738e932077beec0cd6a8e87d83229441dc81c3",
          "blockNumber": "0x1fc4d02",
          "blockTimestamp": "0x0",
          "transactionHash": "0xa452d1f1ac9cdd1656b9c1ed0c01b9b607e20b7342d0dd6374cabeaeec3ff860",
          "transactionIndex": "0x0",
          "logIndex": "0x2",
          "removed": false
        },
        {
          "address": "0xc9ca0707bcd500bd00361e6e615df42f6c08ed6b",
          "topics": [
            "0x759bf8148c6bfac009459ec7604befc0ff80fc7c114157b800524502b902f622",
            "0x0000000000000000000000000000000000000000000000000000000000000004"
          ],
          "data": "0x00000000000000000000000000000000000000000000000000000000000000008740942855655f82a31373e8871afcd903d5ccdbc7eefb98c8556af0190f75410000000000000000000000000000000000000000000000000000000000000060000000000000000000000000000000000000000000000000000000000000000730673a2f2f6d7200000000000000000000000000000000000000000000000000",
          "blockHash": "0xbde647a6624b9fea7a0d941674738e932077beec0cd6a8e87d83229441dc81c3",
          "blockNumber": "0x1fc4d02",
          "blockTimestamp": "0x0",
          "transactionHash": "0xa452d1f1ac9cdd1656b9c1ed0c01b9b607e20b7342d0dd6374cabeaeec3ff860",
          "transactionIndex": "0x0",
          "logIndex": "0x3",
          "removed": false
        }
      ],
      "logsBloom": "0x08000000000000000000000000000000000000000000000000000000000002001000000001000000000008000000000000024000000000000000040000001000000000000000000000001008000000000000000000000000000000000000000008000000020000000100000000000800000000000000000000000090000000004000000000000000000000000000000000000000000000000000000000000000000000000000000000000000000000000000000000000000002000000400000000000002000000000000000000000000000000008000200000000000000020000000000000000000000000000001400000000000000080000000000000000000",
      "type": "0x0",
      "transactionHash": "0xa452d1f1ac9cdd1656b9c1ed0c01b9b607e20b7342d0dd6374cabeaeec3ff860",
      "transactionIndex": "0x0",
      "blockHash": "0xbde647a6624b9fea7a0d941674738e932077beec0cd6a8e87d83229441dc81c3",
      "blockNumber": "0x1fc4d02",
      "gasUsed": "0x2bd2c",
      "effectiveGasPrice": "0x12a05f200",
      "from": "0x2931be85049ab879831506007258e1a104f09bb5",
      "to": "0xc9ca0707bcd500bd00361e6e615df42f6c08ed6b",
      "contractAddress": null
    },
    {
      "status": "0x1",
      "cumulativeGasUsed": "0x2bd2c",
      "logs": [
        {
          "address": "0xc9ca0707bcd500bd00361e6e615df42f6c08ed6b",
          "topics": [
            "0xddf252ad1be2c89b69c2b068fc378daa952ba7f163c4a11628f55a4df523b3ef",
            "0x0000000000000000000000000000000000000000000000000000000000000000",
            "0x0000000000000000000000002931be85049ab879831506007258e1a104f09bb5",
            "0x0000000000000000000000000000000000000000000000000000000000000005"
          ],
          "data": "0x",
          "blockHash": "0x827a47bf365b839fc57b93821e67074e260e554325e51faefb5ded77e5d4a38a",
          "blockNumber": "0x1fc4d10",
          "blockTimestamp": "0x0",
          "transactionHash": "0x592d14d539a533a8f8f2d84a7d7825e3afe27e255cae17f8c355eca5c5304156",
          "transactionIndex": "0x0",
          "logIndex": "0x0",
          "removed": false
        },
        {
          "address": "0x277d737bb2706e01bead9ea305162c16249973e5",
          "topics": [
            "0x3bbba87e8b0a07d589801e13dd322881105b6fbd2243e5568a3c6a23ec52672f",
            "0x0000000000000000000000000000000000000000000000000000000000000005",
            "0x000000000000000000000000c9ca0707bcd500bd00361e6e615df42f6c08ed6b"
          ],
          "data": "0x0000000000000000000000000000000000000000000000000000000000000020000000000000000000000000000000000000000000000000000000000000000504aabbccdd000000000000000000000000000000000000000000000000000000",
          "blockHash": "0x827a47bf365b839fc57b93821e67074e260e554325e51faefb5ded77e5d4a38a",
          "blockNumber": "0x1fc4d10",
          "blockTimestamp": "0x0",
          "transactionHash": "0x592d14d539a533a8f8f2d84a7d7825e3afe27e255cae17f8c355eca5c5304156",
          "transactionIndex": "0x0",
          "logIndex": "0x1",
          "removed": false
        },
        {
          "address": "0x277d737bb2706e01bead9ea305162c16249973e5",
          "topics": [
            "0x3bbba87e8b0a07d589801e13dd322881105b6fbd2243e5568a3c6a23ec52672f",
            "0x0000000000000000000000000000000000000000000000000000000000000005",
            "0x0000000000000000000000002931be85049ab879831506007258e1a104f09bb5"
          ],
          "data": "0x0000000000000000000000000000000000000000000000000000000000000020000000000000000000000000000000000000000000000000000000000000000504aabbccdd000000000000000000000000000000000000000000000000000000",
          "blockHash": "0x827a47bf365b839fc57b93821e67074e260e554325e51faefb5ded77e5d4a38a",
          "blockNumber": "0x1fc4d10",
          "blockTimestamp": "0x0",
          "transactionHash": "0x592d14d539a533a8f8f2d84a7d7825e3afe27e255cae17f8c355eca5c5304156",
          "transactionIndex": "0x0",
          "logIndex": "0x2",
          "removed": false
        },
        {
          "address": "0xc9ca0707bcd500bd00361e6e615df42f6c08ed6b",
          "topics": [
            "0x759bf8148c6bfac009459ec7604befc0ff80fc7c114157b800524502b902f622",
            "0x0000000000000000000000000000000000000000000000000000000000000005"
          ],
          "data": "0x0000000000000000000000000000000000000000000000000000000000000000d6e23a0632da5a51a26725b47a0190d5489a2c75d016dc4af9d7afa45361cd930000000000000000000000000000000000000000000000000000000000000060000000000000000000000000000000000000000000000000000000000000000730673a2f2f6d6d00000000000000000000000000000000000000000000000000",
          "blockHash": "0x827a47bf365b839fc57b93821e67074e260e554325e51faefb5ded77e5d4a38a",
          "blockNumber": "0x1fc4d10",
          "blockTimestamp": "0x0",
          "transactionHash": "0x592d14d539a533a8f8f2d84a7d7825e3afe27e255cae17f8c355eca5c5304156",
          "transactionIndex": "0x0",
          "logIndex": "0x3",
          "removed": false
        }
      ],
      "logsBloom": "0x08000000000000000000000000000000000000000000000000000000000002001000000001000000000008000000000000024000000000000000040000001000000010000000000000001008000000000000000000000000000000000000000000000000020000000100000000000800000000000000000000000090000000004000000000000000000000000000001000000800000000000000000000000000000000000000000000000000000000000000000000000000000000000400000000000002000000000000000000000000000000000000200000000000000020000000000000000000000000000001400000000000000080000000000000000000",
      "type": "0x0",
      "transactionHash": "0x592d14d539a533a8f8f2d84a7d7825e3afe27e255cae17f8c355eca5c5304156",
      "transactionIndex": "0x0",
      "blockHash": "0x827a47bf365b839fc57b93821e67074e260e554325e51faefb5ded77e5d4a38a",
      "blockNumber": "0x1fc4d10",
      "gasUsed": "0x2bd2c",
      "effectiveGasPrice": "0x12a05f200",
      "from": "0x2931be85049ab879831506007258e1a104f09bb5",
      "to": "0xc9ca0707bcd500bd00361e6e615df42f6c08ed6b",
      "contractAddress": null
    },
    {
      "status": "0x1",
      "cumulativeGasUsed": "0xea55",
      "logs": [
        {
          "address": "0xd5bf7bb2c0f18d357535b4b44a0e5190731ecbba",
          "topics": [
            "0x712369dba77e7931b9ec3bd57319108256b9f79ea5b5255122e3c06117421593",
            "0x0000000000000000000000000000000000000000000000000000000000000002"
          ],
          "data": "0x0000000000000000000000002931be85049ab879831506007258e1a104f09bb5",
          "blockHash": "0x5686749833c85d0e6a891d6f3957d4a8419ebf3d7c1e06e103ca6d8637cc6856",
          "blockNumber": "0x1fc4d1f",
          "blockTimestamp": "0x0",
          "transactionHash": "0xf14e0c934449bfce07d26a7a4da47fd2d35e41f13fc0a046ade98688415dfb71",
          "transactionIndex": "0x0",
          "logIndex": "0x0",
          "removed": false
        }
      ],
      "logsBloom": "0x04000000000000000000000000000000000000000000000000000000000000000000000000000000000000000000000000000000000000000000000000000000000000000000000000000000000000000000000000000000000000000000000000000000000000000000000000000000000000000000000000000000000000000000000000000000000000000000000000000000000000000000000000000000000000000000000800000100000000000000000000000000000000000000000000000000002040000000000000000000000000000000000001000000000000000000000000000000000000004000000000000000018000000000000000000000",
      "type": "0x0",
      "transactionHash": "0xf14e0c934449bfce07d26a7a4da47fd2d35e41f13fc0a046ade98688415dfb71",
      "transactionIndex": "0x0",
      "blockHash": "0x5686749833c85d0e6a891d6f3957d4a8419ebf3d7c1e06e103ca6d8637cc6856",
      "blockNumber": "0x1fc4d1f",
      "gasUsed": "0xea55",
      "effectiveGasPrice": "0x12a05f200",
      "from": "0x2931be85049ab879831506007258e1a104f09bb5",
      "to": "0xd5bf7bb2c0f18d357535b4b44a0e5190731ecbba",
      "contractAddress": null
    },
    {
      "status": "0x1",
      "cumulativeGasUsed": "0x1525c",
      "logs": [
        {
          "address": "0xd5bf7bb2c0f18d357535b4b44a0e5190731ecbba",
          "topics": [
            "0x04906d8a9f80ed3fa270d512830928870e2ca0c16114ebb4f85ed052c67c94b2",
            "0x0000000000000000000000000000000000000000000000000000000000000002"
          ],
          "data": "0x",
          "blockHash": "0x028a9a9352825ea382fc90cba82cf8b6a33d7b1d9535f42a39fe9d32845e2b32",
          "blockNumber": "0x1fc4d2f",
          "blockTimestamp": "0x0",
          "transactionHash": "0xf7ca2165274addebb32e831102beb151c1b7103cd82b086e9c885c2e5bc41ea5",
          "transactionIndex": "0x0",
          "logIndex": "0x0",
          "removed": false
        }
      ],
      "logsBloom": "0x04000000000000000000000000000000000000000000000000000000000000000000000000000000000000000000000000000000000000000000000000000000000000000000000000000000000000000000000000000000000000000000000000000000000000000000000000000000000000000000000000000000000000000000000000000000000000000000000000000000000000001000000000000000000000000000000800000100000000000000000000000000000040000000000000000000000000000000000000000000000000000000000001000000000008000000000000000000000000000000000000000000018000000000000000000000",
      "type": "0x0",
      "transactionHash": "0xf7ca2165274addebb32e831102beb151c1b7103cd82b086e9c885c2e5bc41ea5",
      "transactionIndex": "0x0",
      "blockHash": "0x028a9a9352825ea382fc90cba82cf8b6a33d7b1d9535f42a39fe9d32845e2b32",
      "blockNumber": "0x1fc4d2f",
      "gasUsed": "0x1525c",
      "effectiveGasPrice": "0x12a05f200",
      "from": "0x2931be85049ab879831506007258e1a104f09bb5",
      "to": "0xd5bf7bb2c0f18d357535b4b44a0e5190731ecbba",
      "contractAddress": null
    },
    {
      "status": "0x1",
      "cumulativeGasUsed": "0xea55",
      "logs": [
        {
          "address": "0xd5bf7bb2c0f18d357535b4b44a0e5190731ecbba",
          "topics": [
            "0x712369dba77e7931b9ec3bd57319108256b9f79ea5b5255122e3c06117421593",
            "0x0000000000000000000000000000000000000000000000000000000000000003"
          ],
          "data": "0x0000000000000000000000002931be85049ab879831506007258e1a104f09bb5",
          "blockHash": "0xbc02a18ebb33ae1f4ea4adc5a21c9039e276bfceb4e0a251eab69e4fde5b69d5",
          "blockNumber": "0x1fc4d3e",
          "blockTimestamp": "0x0",
          "transactionHash": "0xd2f7ccd60a6ec1a296a66d5b7e7c59329066f2ab622ab6f11a474f6d2e24a20b",
          "transactionIndex": "0x0",
          "logIndex": "0x0",
          "removed": false
        }
      ],
      "logsBloom": "0x00000000000000000000000000000000000000000000000000000000000000000000000000000000000000000000000000000000020000000000000000000000000000000000000000000000000000000000000000000000000000000000000000000000000000000000000000000000000000000000000000000000000000000000000000000000000000000000000000000000000000000000000000000000000000000000000800000000000000000000000000800000000000000000400000000000002040000000000000000000000000000000000001000000000000000000000000000000000000004000000000000000010000000000000000000000",
      "type": "0x0",
      "transactionHash": "0xd2f7ccd60a6ec1a296a66d5b7e7c59329066f2ab622ab6f11a474f6d2e24a20b",
      "transactionIndex": "0x0",
      "blockHash": "0xbc02a18ebb33ae1f4ea4adc5a21c9039e276bfceb4e0a251eab69e4fde5b69d5",
      "blockNumber": "0x1fc4d3e",
      "gasUsed": "0xea55",
      "effectiveGasPrice": "0x12a05f200",
      "from": "0x2931be85049ab879831506007258e1a104f09bb5",
      "to": "0xd5bf7bb2c0f18d357535b4b44a0e5190731ecbba",
      "contractAddress": null
    },
    {
      "status": "0x1",
      "cumulativeGasUsed": "0x1525c",
      "logs": [
        {
          "address": "0xd5bf7bb2c0f18d357535b4b44a0e5190731ecbba",
          "topics": [
            "0x04906d8a9f80ed3fa270d512830928870e2ca0c16114ebb4f85ed052c67c94b2",
            "0x0000000000000000000000000000000000000000000000000000000000000003"
          ],
          "data": "0x",
          "blockHash": "0xf402f7dd0fc8034a654262f213c94bb9a129602bd08bc3bc2918e437e0c3e359",
          "blockNumber": "0x1fc4d4c",
          "blockTimestamp": "0x0",
          "transactionHash": "0x75f8d6c323cccc9a7d5e17db17ea459e5840c3e5fe1c3668dbffc7b5a005a51e",
          "transactionIndex": "0x0",
          "logIndex": "0x0",
          "removed": false
        }
      ],
      "logsBloom": "0x00000000000000000000000000000000000000000000000000000000000000000000000000000000000000000000000000000000020000000000000000000000000000000000000000000000000000000000000000000000000000000000000000000000000000000000000000000000000000000000000000000000000000000000000000000000000000000000000000000000000000001000000000000000000000000000000800000000000000000000000000800000000040000000400000000000000000000000000000000000000000000000000001000000000008000000000000000000000000000000000000000000010000000000000000000000",
      "type": "0x0",
      "transactionHash": "0x75f8d6c323cccc9a7d5e17db17ea459e5840c3e5fe1c3668dbffc7b5a005a51e",
      "transactionIndex": "0x0",
      "blockHash": "0xf402f7dd0fc8034a654262f213c94bb9a129602bd08bc3bc2918e437e0c3e359",
      "blockNumber": "0x1fc4d4c",
      "gasUsed": "0x1525c",
      "effectiveGasPrice": "0x12a05f200",
      "from": "0x2931be85049ab879831506007258e1a104f09bb5",
      "to": "0xd5bf7bb2c0f18d357535b4b44a0e5190731ecbba",
      "contractAddress": null
    },
    {
      "status": "0x1",
      "cumulativeGasUsed": "0xea55",
      "logs": [
        {
          "address": "0xd5bf7bb2c0f18d357535b4b44a0e5190731ecbba",
          "topics": [
            "0x712369dba77e7931b9ec3bd57319108256b9f79ea5b5255122e3c06117421593",
            "0x0000000000000000000000000000000000000000000000000000000000000004"
          ],
          "data": "0x0000000000000000000000002931be85049ab879831506007258e1a104f09bb5",
          "blockHash": "0xd634f99f4bc153c3af226718a9ae896c04b6439128ce6d309ecd153ceebf714e",
          "blockNumber": "0x1fc4d55",
          "blockTimestamp": "0x0",
          "transactionHash": "0xc4236582eb421192499985ab5124983d4f8a993974931caa836377ee17c2081c",
          "transactionIndex": "0x0",
          "logIndex": "0x0",
          "removed": false
        }
      ],
      "logsBloom": "0x00000000000000000000000000000000000000000000000000000000000000000000000000000000000000000000000000000000000000000000000000000000000000000000000000000000000000000000000000000000000000000000000008000000000000000000000000000000000000000000000000000000000000000000000000000000000000000000000000000000000000000000000000000000000000000000000800000000000000000000000000000000002000000000000000000000002040000000000000000000000000008000000001000000000000000000000000000000000000004000000000000000010000000000000000000000",
      "type": "0x0",
      "transactionHash": "0xc4236582eb421192499985ab5124983d4f8a993974931caa836377ee17c2081c",
      "transactionIndex": "0x0",
      "blockHash": "0xd634f99f4bc153c3af226718a9ae896c04b6439128ce6d309ecd153ceebf714e",
      "blockNumber": "0x1fc4d55",
      "gasUsed": "0xea55",
      "effectiveGasPrice": "0x12a05f200",
      "from": "0x2931be85049ab879831506007258e1a104f09bb5",
      "to": "0xd5bf7bb2c0f18d357535b4b44a0e5190731ecbba",
      "contractAddress": null
    },
    {
      "status": "0x1",
      "cumulativeGasUsed": "0x1525c",
      "logs": [
        {
          "address": "0xd5bf7bb2c0f18d357535b4b44a0e5190731ecbba",
          "topics": [
            "0x04906d8a9f80ed3fa270d512830928870e2ca0c16114ebb4f85ed052c67c94b2",
            "0x0000000000000000000000000000000000000000000000000000000000000004"
          ],
          "data": "0x",
          "blockHash": "0x0e957d2f0400976d86a4134f7e7c57889d4b2980c9267c33638a5d4d8c62d421",
          "blockNumber": "0x1fc4d62",
          "blockTimestamp": "0x0",
          "transactionHash": "0xd64381657838304dffc9bce8214e3b0eb1e1891ab4a34cd0e26ab91394220c5a",
          "transactionIndex": "0x0",
          "logIndex": "0x0",
          "removed": false
        }
      ],
      "logsBloom": "0x00000000000000000000000000000000000000000000000000000000000000000000000000000000000000000000000000000000000000000000000000000000000000000000000000000000000000000000000000000000000000000000000008000000000000000000000000000000000000000000000000000000000000000000000000000000000000000000000000000000000000001000000000000000000000000000000800000000000000000000000000000000002040000000000000000000000000000000000000000000000000008000000001000000000008000000000000000000000000000000000000000000010000000000000000000000",
      "type": "0x0",
      "transactionHash": "0xd64381657838304dffc9bce8214e3b0eb1e1891ab4a34cd0e26ab91394220c5a",
      "transactionIndex": "0x0",
      "blockHash": "0x0e957d2f0400976d86a4134f7e7c57889d4b2980c9267c33638a5d4d8c62d421",
      "blockNumber": "0x1fc4d62",
      "gasUsed": "0x1525c",
      "effectiveGasPrice": "0x12a05f200",
      "from": "0x2931be85049ab879831506007258e1a104f09bb5",
      "to": "0xd5bf7bb2c0f18d357535b4b44a0e5190731ecbba",
      "contractAddress": null
    },
    {
      "status": "0x1",
      "cumulativeGasUsed": "0xea55",
      "logs": [
        {
          "address": "0xd5bf7bb2c0f18d357535b4b44a0e5190731ecbba",
          "topics": [
            "0x712369dba77e7931b9ec3bd57319108256b9f79ea5b5255122e3c06117421593",
            "0x0000000000000000000000000000000000000000000000000000000000000005"
          ],
          "data": "0x0000000000000000000000002931be85049ab879831506007258e1a104f09bb5",
          "blockHash": "0x0ebaafc4e91ccb9e0695fe01ca43c671d99594ebfbebefec5c1517fbc2773804",
          "blockNumber": "0x1fc4d73",
          "blockTimestamp": "0x0",
          "transactionHash": "0x26e92a3ab2dbf6d3d015651df3df7897bb63391a440572ba96b39615e54ac15f",
          "transactionIndex": "0x0",
          "logIndex": "0x0",
          "removed": false
        }
      ],
      "logsBloom": "0x00000000000000000000000000000000000000000000000000000000000000000000000000000000000000000000000000000000000000000000000000000000000010000000000000000000000000000000000000000000000000000000000000000000000000000000000000000000000000000000000000000000000000000000000000000000000000000000001000000800000000000000000000000000000000000000000800000000000000000000000000000000000000000000000000000000002040000000000000000000000000000000000001000000000000000000000000000000000000004000000000000000010000000000000000000000",
      "type": "0x0",
      "transactionHash": "0x26e92a3ab2dbf6d3d015651df3df7897bb63391a440572ba96b39615e54ac15f",
      "transactionIndex": "0x0",
      "blockHash": "0x0ebaafc4e91ccb9e0695fe01ca43c671d99594ebfbebefec5c1517fbc2773804",
      "blockNumber": "0x1fc4d73",
      "gasUsed": "0xea55",
      "effectiveGasPrice": "0x12a05f200",
      "from": "0x2931be85049ab879831506007258e1a104f09bb5",
      "to": "0xd5bf7bb2c0f18d357535b4b44a0e5190731ecbba",
      "contractAddress": null
    },
    {
      "status": "0x1",
      "cumulativeGasUsed": "0x1525c",
      "logs": [
        {
          "address": "0xd5bf7bb2c0f18d357535b4b44a0e5190731ecbba",
          "topics": [
            "0x04906d8a9f80ed3fa270d512830928870e2ca0c16114ebb4f85ed052c67c94b2",
            "0x0000000000000000000000000000000000000000000000000000000000000005"
          ],
          "data": "0x",
          "blockHash": "0x97ffa5ddddc4ede144460793e3f61e26d9625d33a58c40c73cee4491666fd221",
          "blockNumber": "0x1fc4d83",
          "blockTimestamp": "0x0",
          "transactionHash": "0xb03b8167a7c6e8f3a63c887a9340d6ddc07c4b4a0876ea1ea7d80eea282e1d4f",
          "transactionIndex": "0x0",
          "logIndex": "0x0",
          "removed": false
        }
      ],
      "logsBloom": "0x00000000000000000000000000000000000000000000000000000000000000000000000000000000000000000000000000000000000000000000000000000000000010000000000000000000000000000000000000000000000000000000000000000000000000000000000000000000000000000000000000000000000000000000000000000000000000000000001000000800000000001000000000000000000000000000000800000000000000000000000000000000000040000000000000000000000000000000000000000000000000000000000001000000000008000000000000000000000000000000000000000000010000000000000000000000",
      "type": "0x0",
      "transactionHash": "0xb03b8167a7c6e8f3a63c887a9340d6ddc07c4b4a0876ea1ea7d80eea282e1d4f",
      "transactionIndex": "0x0",
      "blockHash": "0x97ffa5ddddc4ede144460793e3f61e26d9625d33a58c40c73cee4491666fd221",
      "blockNumber": "0x1fc4d83",
      "gasUsed": "0x1525c",
      "effectiveGasPrice": "0x12a05f200",
      "from": "0x2931be85049ab879831506007258e1a104f09bb5",
      "to": "0xd5bf7bb2c0f18d357535b4b44a0e5190731ecbba",
      "contractAddress": null
    },
    {
      "status": "0x1",
      "cumulativeGasUsed": "0x19ecf",
      "logs": [
        {
          "address": "0xc8a286097394631c49d0ed9a414a9d8c89b21f75",
          "topics": [
            "0x79f19b3655ee38b1ce526556b7731a20c8f218fbda4a3990b6cc4172fdf88722",
            "0x00000000000000000000000044e8987708370bac3fc146063ddd3144f82cdcc8",
            "0x000000000000000000000000c9ca0707bcd500bd00361e6e615df42f6c08ed6b",
            "0x0000000000000000000000000000000000000000000000000000000000000002"
          ],
          "data": "0x0000000000000000000000003cf56b1eecddec8c1a1af65d097ba96b8ae03ebf000000000000000000000000000000000000000000000000000000000000000000000000000000000000000000000000000000000000000000000000000040da",
          "blockHash": "0xa8d3414b4b47028d450b8567e0943d37879f5c34d16c5dd3f422a53d77bf7585",
          "blockNumber": "0x1fc4d94",
          "blockTimestamp": "0x0",
          "transactionHash": "0xece063db068ccd0b55ac14a46986020062144009f19e76287863d74a93fd4acf",
          "transactionIndex": "0x0",
          "logIndex": "0x0",
          "removed": false
        }
      ],
      "logsBloom": "0x0c010000000000000000000000000004000000000000000000000004080000000000000000000000000000000000000000000000000000000001000000000000000000000000000000001000000000000000000000000000000000000000000000000000000000000002000000000000000000000000000000000000000000000000000000000000000000000000000000000004000000000000000000000000000000000000000000000100000000000000000000000000000000000000000000000000000000000000200040000000000000000000000000000000000000000000000000000000000000000000400000000000008000000000000000000000",
      "type": "0x0",
      "transactionHash": "0xece063db068ccd0b55ac14a46986020062144009f19e76287863d74a93fd4acf",
      "transactionIndex": "0x0",
      "blockHash": "0xa8d3414b4b47028d450b8567e0943d37879f5c34d16c5dd3f422a53d77bf7585",
      "blockNumber": "0x1fc4d94",
      "gasUsed": "0x19ecf",
      "effectiveGasPrice": "0x12a05f200",
      "from": "0x2931be85049ab879831506007258e1a104f09bb5",
      "to": "0xc8a286097394631c49d0ed9a414a9d8c89b21f75",
      "contractAddress": null
    },
    {
      "status": "0x1",
      "cumulativeGasUsed": "0x19ecf",
      "logs": [
        {
          "address": "0xc8a286097394631c49d0ed9a414a9d8c89b21f75",
          "topics": [
            "0x79f19b3655ee38b1ce526556b7731a20c8f218fbda4a3990b6cc4172fdf88722",
            "0x00000000000000000000000044e8987708370bac3fc146063ddd3144f82cdcc8",
            "0x000000000000000000000000c9ca0707bcd500bd00361e6e615df42f6c08ed6b",
            "0x0000000000000000000000000000000000000000000000000000000000000003"
          ],
          "data": "0x000000000000000000000000f47d7c9d3ab16c3ee1e110e012b968523743fea4000000000000000000000000000000000000000000000000000000000000000000000000000000000000000000000000000000000000000000000000000040da",
          "blockHash": "0x5334d5b53cc7b2bb60d7ae0f162b6d7cb4c759c7b09c357b4dafb80eb7c71cec",
          "blockNumber": "0x1fc4da4",
          "blockTimestamp": "0x0",
          "transactionHash": "0x2c2669bc234e74bc1809d70a3dc584d6ebed491df57ba531f3e2484358c5e8c6",
          "transactionIndex": "0x0",
          "logIndex": "0x0",
          "removed": false
        }
      ],
      "logsBloom": "0x08010000000000000000000000000004000000000000000000000004080000000000000000000000000000000000000000000000020000000001000000000000000000000000000000001000000000000000000000000000000000000000000000000000000000000002000000000000000000000000000000000000000000000000000000000000000000000000000000000004000000000000000000000000000000000000000000000000000000000000000000800000000000000000400000000000000000000000200040000000000000000000000000000000000000000000000000000000000000000000400000000000000000000000000000000000",
      "type": "0x0",
      "transactionHash": "0x2c2669bc234e74bc1809d70a3dc584d6ebed491df57ba531f3e2484358c5e8c6",
      "transactionIndex": "0x0",
      "blockHash": "0x5334d5b53cc7b2bb60d7ae0f162b6d7cb4c759c7b09c357b4dafb80eb7c71cec",
      "blockNumber": "0x1fc4da4",
      "gasUsed": "0x19ecf",
      "effectiveGasPrice": "0x12a05f200",
      "from": "0x2931be85049ab879831506007258e1a104f09bb5",
      "to": "0xc8a286097394631c49d0ed9a414a9d8c89b21f75",
      "contractAddress": null
    },
    {
      "status": "0x1",
      "cumulativeGasUsed": "0x19ecf",
      "logs": [
        {
          "address": "0xc8a286097394631c49d0ed9a414a9d8c89b21f75",
          "topics": [
            "0x79f19b3655ee38b1ce526556b7731a20c8f218fbda4a3990b6cc4172fdf88722",
            "0x00000000000000000000000044e8987708370bac3fc146063ddd3144f82cdcc8",
            "0x000000000000000000000000c9ca0707bcd500bd00361e6e615df42f6c08ed6b",
            "0x0000000000000000000000000000000000000000000000000000000000000004"
          ],
          "data": "0x0000000000000000000000004098e662c2d674064ff6605cfccafd89ebbae2a9000000000000000000000000000000000000000000000000000000000000000000000000000000000000000000000000000000000000000000000000000040da",
          "blockHash": "0x0669d6faff3cb6abd34f3c130d08b181805b22ba56fd06dff7c633a451d732ac",
          "blockNumber": "0x1fc4db3",
          "blockTimestamp": "0x0",
          "transactionHash": "0x100aa7044ea18982003c1d9a0f8d1341ba52af1b2fb59635f61fd525c9c6a5cd",
          "transactionIndex": "0x0",
          "logIndex": "0x0",
          "removed": false
        }
      ],
      "logsBloom": "0x08010000000000000000000000000004000000000000000000000004080000000000000000000000000000000000000000000000000000000001000000000000000000000000000000001000000000000000000000000000000000000000000008000000000000000002000000000000000000000000000000000000000000000000000000000000000000000000000000000004000000000000000000000000000000000000000000000000000000000000000000000000002000000000000000000000000000000000200040000000000000008000000000000000000000000000000000000000000000000000400000000000000000000000000000000000",
      "type": "0x0",
      "transactionHash": "0x100aa7044ea18982003c1d9a0f8d1341ba52af1b2fb59635f61fd525c9c6a5cd",
      "transactionIndex": "0x0",
      "blockHash": "0x0669d6faff3cb6abd34f3c130d08b181805b22ba56fd06dff7c633a451d732ac",
      "blockNumber": "0x1fc4db3",
      "gasUsed": "0x19ecf",
      "effectiveGasPrice": "0x12a05f200",
      "from": "0x2931be85049ab879831506007258e1a104f09bb5",
      "to": "0xc8a286097394631c49d0ed9a414a9d8c89b21f75",
      "contractAddress": null
    },
    {
      "status": "0x1",
      "cumulativeGasUsed": "0x19ecf",
      "logs": [
        {
          "address": "0xc8a286097394631c49d0ed9a414a9d8c89b21f75",
          "topics": [
            "0x79f19b3655ee38b1ce526556b7731a20c8f218fbda4a3990b6cc4172fdf88722",
            "0x00000000000000000000000044e8987708370bac3fc146063ddd3144f82cdcc8",
            "0x000000000000000000000000c9ca0707bcd500bd00361e6e615df42f6c08ed6b",
            "0x0000000000000000000000000000000000000000000000000000000000000005"
          ],
          "data": "0x0000000000000000000000005498071acc7cd4c7948808aeac3674f8dac8f764000000000000000000000000000000000000000000000000000000000000000000000000000000000000000000000000000000000000000000000000000040da",
          "blockHash": "0xbe8bbf823fa0bfb343762c2b12a7a6185b1ac5d4cd2c66d19ab349e8136a2a50",
          "blockNumber": "0x1fc4dc3",
          "blockTimestamp": "0x0",
          "transactionHash": "0xf41e19f0dfb289f35c13968d18f62fddacdc996cd69cf6d8ff52841192126c51",
          "transactionIndex": "0x0",
          "logIndex": "0x0",
          "removed": false
        }
      ],
      "logsBloom": "0x08010000000000000000000000000004000000000000000000000004080000000000000000000000000000000000000000000000000000000001000000000000000010000000000000001000000000000000000000000000000000000000000000000000000000000002000000000000000000000000000000000000000000000000000000000000000000000000001000000804000000000000000000000000000000000000000000000000000000000000000000000000000000000000000000000000000000000000200040000000000000000000000000000000000000000000000000000000000000000000400000000000000000000000000000000000",
      "type": "0x0",
      "transactionHash": "0xf41e19f0dfb289f35c13968d18f62fddacdc996cd69cf6d8ff52841192126c51",
      "transactionIndex": "0x0",
      "blockHash": "0xbe8bbf823fa0bfb343762c2b12a7a6185b1ac5d4cd2c66d19ab349e8136a2a50",
      "blockNumber": "0x1fc4dc3",
      "gasUsed": "0x19ecf",
      "effectiveGasPrice": "0x12a05f200",
      "from": "0x2931be85049ab879831506007258e1a104f09bb5",
      "to": "0xc8a286097394631c49d0ed9a414a9d8c89b21f75",
      "contractAddress": null
    },
    {
      "status": "0x1",
      "cumulativeGasUsed": "0xc7c8",
      "logs": [
        {
          "address": "0xc9ca0707bcd500bd00361e6e615df42f6c08ed6b",
          "topics": [
            "0x17307eab39ab6107e8899845ad3d59bd9653f200f220920489ca2b5937696c31",
            "0x0000000000000000000000002931be85049ab879831506007258e1a104f09bb5",
            "0x000000000000000000000000d5bf7bb2c0f18d357535b4b44a0e5190731ecbba"
          ],
          "data": "0x0000000000000000000000000000000000000000000000000000000000000001",
          "blockHash": "0x1d801e7dc14922afc78c7e0205e768b763159f059226842b20fe6db4a54a62b1",
          "blockNumber": "0x1fc4dd4",
          "blockTimestamp": "0x0",
          "transactionHash": "0xad5ad7f2e8b2f26322950c91b87fb3fadc632d961422fe601d177bb505ee82e3",
          "transactionIndex": "0x0",
          "logIndex": "0x0",
          "removed": false
        }
      ],
      "logsBloom": "0x00000000000000000000000000000000000000000000000000000000000000000000000001000000000000000000000000000000000000000000040000001000000000000000000000000000000000000100000000000000000000000000000002000000000000000000000020000000000000000000000000000080000000004000000000000000000000000000000000000000000000000000000400000000000000000000000000000000000000000000000000000000000000000000000000000000000000000000000000000000000000000000000000000000000000000000200800000000000000000000000000000000000080000000000000000000",
      "type": "0x0",
      "transactionHash": "0xad5ad7f2e8b2f26322950c91b87fb3fadc632d961422fe601d177bb505ee82e3",
      "transactionIndex": "0x0",
      "blockHash": "0x1d801e7dc14922afc78c7e0205e768b763159f059226842b20fe6db4a54a62b1",
      "blockNumber": "0x1fc4dd4",
      "gasUsed": "0xc7c8",
      "effectiveGasPrice": "0x12a05f200",
      "from": "0x2931be85049ab879831506007258e1a104f09bb5",
      "to": "0xc9ca0707bcd500bd00361e6e615df42f6c08ed6b",
      "contractAddress": null
    }
  ],
  "libraries": [],
  "pending": [],
  "returns": {},
  "timestamp": 1778779888,
  "chain": 16602,
  "commit": "eab63f7"
}